:08000000803102288731CC2F6A
:100B6000F00023009E1CB12D70089A0008002000A0
:100B7000911EB72D23009D1CBF2D1D121D16190897
:100B800008006400800101310130FE020030FF3BAB
:100B90007F087E0403190034C22DFE0012001E00DF
:100BA0000130FE020030FF3B7F087E040319003451
:100BB000CE2D363404341C3419345734F934983477
:100BC000D13465344B347134FC3498345F34383468
:100BD00090340F34093406340A34013404340334B5
:100BE00000340D340E3407340C340B340234053425
:100BF0000834A13467343434AB34CD3456347834CB
:100C00000134F500F601F70172087702031D0A2E80
:100C100071087602031808007008F300760875075B
:100C2000F400740886008701730881000130F6071C
:100C30000030F73D042EF6017208F4007108F3004D
:100C400076087307840074080318740A850012007C
:100C5000031908007208F4007108F300760873079E
:100C6000840074080318740A850000088531B025D3
:100C700086310130F3007308F6071C2E0030FC00AB
:100C80000030FB000030FA000030F90073087204F5
:100C9000710470040319872EFD01FD0AF31B5C2EFD
:100CA0000130F035F10DF20DF30D890B512E0130AD
:100CB000F8007808FD074E2E0130F935FA0DFB0DCE
:100CC000FC0D890B5D2E73087702031D712E7208CF
:100CD0007602031D712E71087502031D712E7008B6
:100CE0007402031C7C2E7008F4027108F53B720834
:100CF000F63B7308F73B79140130F336F20CF10C34
:100D0000F00C890B7D2E0130FD02031D5C2E7C084A
:100D1000F3007B08F2007A08F1007908F00008007F
:100D200020005A08DE005B08DF005C08E0005D0878
:100D3000E1000430DE35DF0DE00DE10D890B9A2E68
:100D40006108F3006008F2005F08F1005E08F0003F
:100D50000030F7007A30F6001230F5000030F40071
:100D600086313E2686317008FF3E2000E200FF30CB
:100D7000713DE30021000E138E1722009D101D11FE
:100D80002000E31FC52EE201E3016308803ADE0084
:100D900081305E02031DCE2E00306202031C102F34
:100DA00020005A08DE005B08DF005C08E0005D08F8
:100DB000E1000630DE35DF0DE00DE10D890BDA2EA6
:100DC0006108F3006008F2005F08F1005E08F000BF
:100DD0000030F7007A30F6001230F5000030F400F1
:100DE00086313E2686317008FF3E2000E200FF304B
:100DF000713DE3006308803ADE0081305E02031D2E
:100E0000032F00306202031C0A2FFF302000E20093
:100E10000030E3002000620823009B002030152FE3
:100E20002000620823009B0024309E0090309D002B
:100E3000080021008E1120008E11703021009900D1
:100E400000302000DD000030DC002530DB00803089
:100E5000DA008631902687310B302000E5002630FD
:100E6000E4005D30890B322FE40B322FE50B322F7B
:100E7000003220008E15F0011030F1000030F20039
:100E800032308631012687312F30F1008830F20070
:100E900086311B2687312000E801E9018531B7251D
:100EA00087312000E4006408E6006608E400680872
:100EB000323E86008701640881000130E807003077
:100EC000E93D00306902103003196802031C4E2FFF
:100ED000E801E90168080739523E860087010108E8
:100EE000E4006808323E860087016408810601300C
:100EF000E8070030E93D003069021030031968024C
:100F0000031C6A2FE801E9016808423E8600870158
:100F10000108323E860087010108E4006808203E8F
:100F200086008701640881000130E8070030E93D50
:100F300000306902103003196802031C842FE70196
:100F4000E70AE801E9016808A03E86008701680811
:100F5000203E8400850100080106031DE7010130E1
:100F6000E8070030E93D00306902103003196802DB
:100F7000031CA32F6703031D3B2F2130F100883092
:100F8000F20086311B2687310030F1008830F200F4
:100F900086311B268731CB2FE930840085308500D0
:100FA00042308600003087000030FF001830853165
:100FB000CD258731D930840085308500A03086006A
:100FC000003087000030FF0010308531CD2587319B
:100FD0008C308400273085006430FE000030FF0034
:100FE0008531C125873120308400003085002230D2
:100FF000FE000030FF008531C12520008731192F08
:101000003D343D343D342034573465346C346334DE
:101010006F346D346534203474346F342034533479
:101020004134543443344F344D34203474346534B3
:1010300072346D3469346E3461346C3421340A3462
:10104000003442346F346F34743469346E3467342E
:1010500020342E342E342E340D340A3400344734E8
:0A1060006F343A340D340A340034C2
:020000040001F9
:08000000FF3FFF3FFF3FFF3F00
:04000E00E4FFFFDF2D
:00000001FF
